:020000040800F2
:1000000000400120AD0A00082D0A0008330A00084C
:10001000390A00083F0A0008450A000800000000ED
:100020000000000000000000000000004B0A000873
:10003000570A000800000000630A00086F0A000861
:10004000F50A0008F50A0008F50A0008F50A000894
:10005000F50A0008F50A0008F50A0008F50A000884
:10006000F50A0008F50A0008F50A0008F50A000874
:10007000F50A0008F50A0008F50A0008F50A000864
:10008000F50A0008F50A0008F50A0008F50A000854
:10009000F50A0008F50A0008F50A0008F50A000844
:1000A000F50A0008F50A0008F50A0008F50A000834
:1000B000F50A00087D0A0008F50A0008F50A00089C
:1000C000F50A0008F50A0008F50A0008F50A000814
:1000D000F50A0008F50A0008F50A0008F50A000804
:1000E000910A0008F50A0008F50A0008F50A000858
:1000F000F50A000800000000F50A0008F50A0008EB
:10010000F50A0008F50A0008F50A0008F50A0008D3
:10011000F50A0008F50A0008F50A000800000000CA
:10012000F50A0008000000000000000000000000C8
:0C01300000000000000000005FF808F173
:10013C0010B5054C237833B9044B13B10448AFF315
:10014C0000800123237010BD0C0000200000000073
:10015C00C02D000808B5034B1BB103490348AFF38E
:10016C00008008BD0000000010000020C02D000819
:10017C0053B94AB9002908BF00281CBF4FF0FF3102
:10018C004FF0FF3000F076B9ADF1080C6DE904CEFC
:10019C0000F006F8DDF804E0DDE9022304B0704756
:1001AC002DE9F047089E0D4604468846002B4DD19C
:1001BC008A42944668D9B2FA82F252B101FA02F339
:1001CC00C2F1200120FA01F10CFA02FC41EA030809
:1001DC0094404FEA1C41B8FBF1F71FFA8CFE01FB6F
:1001EC00178807FB0EF0230C43EA084398420AD900
:1001FC001CEB030307F1FF3580F01E81984240F29F
:10020C001B81023F63441B1AB3FBF1F001FB10335B
:10021C0000FB0EFEA4B244EA0344A6450AD91CEB2B
:10022C00040400F1FF3380F00981A64540F20681F9
:10023C00644402380021A4EB0E0440EA07401EB1CE
:10024C000023D440C6E90043BDE8F0878B4208D9AF
:10025C00002E00F0EE800021C6E900050846BDE83E
:10026C00F087B3FA83F100294AD1AB4202D3824220
:10027C0000F2FC80841A65EB030301209846002EE3
:10028C00E2D0C6E90048DFE702B9FFDEB2FA82F23B
:10029C00002A40F09180A1EB0C0001214FEA1C4791
:1002AC001FFA8CFEB0FBF7F307FB1300250C45EA95
:1002BC0000450EFB03F0A84208D91CEB050503F121
:1002CC00FF3802D2A84200F2CE8043462D1AB5FB6D
:1002DC00F7F007FB10550EFB00FEA4B244EA0544F0
:1002EC00A64508D91CEB040400F1FF3502D2A64543
:1002FC0000F2B6802846A4EB0E0440EA03409EE7C9
:10030C00C1F120078B4022FA07FC4CEA030C25FABA
:10031C0007FA4FEA1C49BAFBF9F820FA07F309FB74
:10032C0018AA8D401FFA8CFE1D4300FA01F308FB3E
:10033C000EF02C0C44EA0A44A04202FA01F20BD94A
:10034C001CEB040408F1FF3A80F08880A04240F2D4
:10035C008580A8F102086444241AB4FBF9F009FB67
:10036C00104400FB0EFEADB245EA0444A64508D984
:10037C001CEB040400F1FF356CD2A6456AD9023897
:10038C00644440EA0840A0FB0295A4EB0E04AC4286
:10039C00C846AE4656D353D0002E69D0B3EB0802F4
:1003AC0064EB0E0422FA01F304FA07F71F43CC4066
:1003BC00C6E90074002147E70CFA02FCC2F12001E7
:1003CC0025FA01F34FEA1C4720FA01F195400D4341
:1003DC00B3FBF7F107FB11331FFA8CFE280C40EA34
:1003EC00034001FB0EF3834204FA02F408D91CEB20
:1003FC00000001F1FF382FD283422DD9023960441D
:10040C00C01AB0FBF7F307FB1300ADB245EA004589
:10041C0003FB0EF0A84208D91CEB050503F1FF38CD
:10042C0016D2A84214D9023B6544281A43EA01416A
:10043C0038E73146304607E72F46E4E61846F9E63A
:10044C004B45A9D2B9EB020865EB0C0E0138A3E7BA
:10045C004346EAE7284694E74146D1E7D0467BE796
:10046C006444023847E7023B65442FE7084606E739
:10047C003146E9E6704700BF80B582B000AF034655
:10048C00FB80FB88B3F5005F07D1064801F0A0FCA8
:10049C00044B1B686FF001021A6100BF0837BD46A0
:1004AC0080BD00BF6800002080B582B000AF7860CE
:1004BC007B680F4A934216D14FF400510D4800F05F
:1004CC0021FE0346002B07D100210B4801F040FD13
:1004DC00074801F0CFFC06E00021074801F0CEFDF3
:1004EC00034801F0C7FC00BF0837BD4680BD00BF04
:1004FC0068000020000802402800002080B500AFF2
:10050C0000F0F3FA00F00AF800F048F900F01CF9DA
:10051C0000F050F800F0CAF8FEE7000080B592B089
:10052C0000AF07F1140334220021184602F03AFC04
:10053C003B4600221A605A609A60DA601A611C4BC2
:10054C001B6823F4C0531A4A43F40063136002235C
:10055C007B6101233B6210237B620223BB6300237C
:10056C00FB6300233B644FF400037B6407F114032B
:10057C00184600F0F7FD0346002B01D000F068F997
:10058C000F233B6003237B600023BB600023FB60D5
:10059C0000233B613B460021184601F013F903464A
:1005AC00002B01D000F054F900BF4837BD4680BD88
:1005BC000070004080B58AB000AF07F1180300222C
:1005CC001A605A609A60DA6007F1100300221A6010
:1005DC005A603B4600221A605A609A60DA60324BCD
:1005EC004FF080421A60304B43F67F625A602E4BBC
:1005FC0000229A602C4B40F2E732DA602A4B002240
:10060C001A61294B80225A61274801F0A1FB03464D
:10061C00002B01D000F01CF94FF48053BB6107F1A3
:10062C0018031946204801F001FF0346002B01D0A6
:10063C0000F00EF91C4801F043FC0346002B01D0DE
:10064C0000F006F930233B6100237B6107F11003B6
:10065C001946154802F0F2F90346002B01D000F0C0
:10066C00F7F860233B6040F2F3137B600023BB6020
:10067C000023FB603B46002219460B4801F018FE94
:10068C000346002B01D000F0E3F8074B1B689A6976
:10069C00054B1B6822F008029A61034800F046F9EA
:1006AC0000BF2837BD4680BD2800002080B586B02D
:1006BC0000AF07F1080300221A605A609A60DA60F2
:1006CC003B4600221A605A601D4B1E4A1A601C4B96
:1006DC0043F67F625A601A4B00229A60184B40F224
:1006EC00E732DA60164B00221A61154B00225A6170
:1006FC00134801F02DFB0346002B01D000F0A8F8A5
:10070C004FF48053BB6007F1080319460C4801F005
:10071C008DFE0346002B01D000F09AF800233B60BD
:10072C0000237B603B461946054802F087F90346D7
:10073C00002B01D000F08CF800BF1837BD4680BDEF
:10074C00680000200004004080B500AF114B124A35
:10075C001A60104B4FF4E1325A600E4B00229A6033
:10076C000C4B0022DA600B4B00221A61094B0C2255
:10077C005A61084B00229A61064B0022DA61054847
:10078C0002F0BAF90346002B01D000F061F800BF6B
:10079C0080BD00BFA80000200044004080B58AB096
:1007AC0000AF07F1140300221A605A609A60DA60F5
:1007BC001A61254BDB69244A43F00403D361224BB5
:1007CC00DB6903F004033B613B691F4BDB691E4A89
:1007DC0043F02003D3611C4BDB6903F02003FB6067
:1007EC00FB68194BDB69184A43F00103D361164BC4
:1007FC00DB6903F00103BB60BB68134BDB69124A76
:10080C0043F00203D361104BDB6903F002037B60FE
:10081C007B684FF400537B614FF44413BB6100239E
:10082C00FB6107F114031946084800F0DBFA0F22AC
:10083C000021282000F09FFA282000F0B8FA00BF11
:10084C002837BD4680BD00BF00380240000802407A
:10085C0080B400AF72B600BFFEE7000080B584B074
:10086C0000AF154B5B6A144A43F000435362124BC2
:10087C005B6A03F00043FB60FB680F4B1B6A0E4A7C
:10088C0043F0010313620C4B1B6A03F00103BB60C2
:10089C00BB68094B5B6A084A43F080535362064BB2
:1008AC005B6A03F080537B607B68072000F058FA8A
:1008BC0000BF1037BD4680BD0038024080B584B003
:1008CC0000AF78607B681B68B3F1804F0CD1154B7F
:1008DC005B6A144A43F001035362124B5B6A03F0E8
:1008EC000103FB60FB6818E07B681B680E4A9342AF
:1008FC0013D10C4B5B6A0B4A43F002035362094B56
:10090C005B6A03F00203BB60BB68002200211D2060
:10091C0000F031FA1D2000F04AFA00BF1037BD4636
:10092C0080BD00BF003802400004004080B588B094
:10093C0000AF786007F10C0300221A605A609A60CD
:10094C00DA601A617B681B68B3F1804F1BD1104BC6
:10095C00DB690F4A43F00103D3610D4BDB6903F0F4
:10096C000103BB60BB682023FB6002233B610023B7
:10097C007B610023BB610123FB6107F10C0319466A
:10098C00044800F02FFA00BF2037BD4680BD00BFE1
:10099C00003802400000024080B58AB000AF786099
:1009AC0007F1140300221A605A609A60DA601A6127
:1009BC007B681B68174A934227D1174B5B6A164A10
:1009CC0043F400335362144B5B6A03F400333B6112
:1009DC003B69114BDB69104A43F00103D3610E4BA9
:1009EC00DB6903F00103FB60FB680C237B610223D2
:1009FC00BB610023FB6103233B6207237B6207F18E
:100A0C0014031946054800F0EDF900BF2837BD4620
:100A1C0080BD00BF0044004000380240000002408E
:100A2C0080B400AFFEE780B400AFFEE780B400AF47
:100A3C00FEE780B400AFFEE780B400AFFEE780B401
:100A4C0000AF00BFBD4680BC704780B400AF00BF94
:100A5C00BD4680BC704780B400AF00BFBD4680BCB3
:100A6C00704780B500AF00F093F800BF80BD000068
:100A7C0080B500AF024801F03EFB00BF80BD00BF57
:100A8C006800002080B500AF4FF4005000F052FB1E
:100A9C0000BF80BD80B400AF00BFBD4680BC7047B6
:100AAC000C480D490D4A002302E0D458C4500433BD
:100ABC00C4188C42F9D30A4A0A4C002301E0136093
:100ACC000432A242FBD3FFF7E5FF02F047F9FFF730
:100ADC0015FD7047000000200C0000200C2E0008B3
:100AEC000C000020F0000020FEE780B582B000AFC3
:100AFC000023FB71032000F033F9002000F00EF806
:100B0C000346002B02D00123FB7101E0FFF7A6FE88
:100B1C00FB7918460837BD4680BD000080B584B00F
:100B2C0000AF78600023FB73164B1B68002B22D0A0
:100B3C00154B1A68134B1B684FF47A71B1FBF3F326
:100B4C00B2FBF3F3184600F040F90346002B0FD12B
:100B5C007B680F2B09D8002279684FF0FF3000F02A
:100B6C000AF90A4A7B68136007E00123FB7304E06F
:100B7C000123FB7301E00123FB73FB7B1846103749
:100B8C00BD4680BD080000200000002004000020AD
:100B9C0080B400AF054B1A68054B1B681344034A1D
:100BAC00136000BFBD4680BC704700BFEC00002046
:100BBC000800002080B400AF024B1B681846BD46ED
:100BCC0080BC7047EC00002080B485B000AF78602A
:100BDC007B6803F00703FB600C4BDB68BB60BA68F7
:100BEC004FF6FF031340BB60FB681A02BB6813434C
:100BFC0043F0BF6343F40033BB60044ABB68D3606B
:100C0C0000BF1437BD4680BC704700BF00ED00E04C
:100C1C0080B400AF044BDB681B0A03F007031846D3
:100C2C00BD4680BC704700BF00ED00E080B483B0CF
:100C3C0000AF0346FB7197F90730002B0BDBFB79F8
:100C4C0003F01F02064997F907305B09012000FAEF
:100C5C0002F241F8232000BF0C37BD4680BC704720
:100C6C0000E100E080B483B000AF03463960FB7153
:100C7C0097F90730002B0ADB3B68DAB20C4997F97D
:100C8C0007301201D2B20B4483F800230AE03B6810
:100C9C00DAB20849FB7903F00F03043B1201D2B21C
:100CAC000B441A7600BF0C37BD4680BC704700BFA2
:100CBC0000E100E000ED00E080B489B000AFF86026
:100CCC00B9607A60FB6803F00703FB61FB69C3F151
:100CDC000703042B28BF0423BB61FB690433062BD9
:100CEC0002D9FB69033B00E000237B614FF0FF322C
:100CFC00BB6902FA03F3DA43BB681A407B699A407A
:100D0C004FF0FF317B6901FA03F3D9437B680B4049
:100D1C00134318462437BD4680BC704780B582B05B
:100D2C0000AF78607B68013BB3F1807F01D3012376
:100D3C000FE00A4A7B68013B53600F214FF0FF30F4
:100D4C00FFF790FF054B00229A60044B07221A60B4
:100D5C00002318460837BD4680BD00BF10E000E0F8
:100D6C0080B582B000AF78607868FFF72DFF00BFC8
:100D7C000837BD4680BD80B586B000AF0346B9606C
:100D8C007A60FB7300237B61FFF742FF78617A681E
:100D9C00B9687869FFF790FF024697F90F30114652
:100DAC001846FFF75FFF00BF1837BD4680BD80B502
:100DBC0082B000AF0346FB7197F907301846FFF776
:100DCC0035FF00BF0837BD4680BD80B582B000AF8F
:100DDC0078607868FFF7A2FF034618460837BD46CF
:100DEC0080BD000080B487B000AF7860396000230C
:100DFC007B610023FB6000233B6160E13B681A6868
:100E0C0001217B6901FA03F31340FB60FB68002BA3
:100E1C0000F052813B685B6803F00303012B05D0A3
:100E2C003B685B6803F00303022B30D17B689B6843
:100E3C003B617B695B00032202FA03F3DB433A69F3
:100E4C0013403B613B68DA687B695B0002FA03F391
:100E5C003A6913433B617B683A699A607B685B68CB
:100E6C003B6101227B6902FA03F3DB433A691340CD
:100E7C003B613B685B681B0903F001027B6902FA6A
:100E8C0003F33A6913433B617B683A695A603B68E8
:100E9C005B6803F00303032B17D07B68DB683B61B3
:100EAC007B695B00032202FA03F3DB433A691340CC
:100EBC003B613B689A687B695B0002FA03F33A6911
:100ECC0013433B617B683A69DA603B685B6803F00B
:100EDC000303022B23D17B69DA087B68083253F8B1
:100EEC0022303B617B6903F007039B000F2202FA5F
:100EFC0003F3DB433A6913403B613B681A697B6936
:100F0C0003F007039B0002FA03F33A6913433B61B6
:100F1C007B69DA087B680832396943F822107B68F0
:100F2C001B683B617B695B00032202FA03F3DB4322
:100F3C003A6913403B613B685B6803F003027B69D1
:100F4C005B0002FA03F33A6913433B617B683A692D
:100F5C001A603B685B6803F44033002B00F0AC80F4
:100F6C005E4B1B6A5D4A43F0010313625B4B1B6AC9
:100F7C0003F00103BB60BB68594A7B699B080233D1
:100F8C0052F823303B617B6903F003039B000F2273
:100F9C0002FA03F3DB433A6913403B617B68514A25
:100FAC00934225D07B68504A93421FD07B684F4AAE
:100FBC00934219D07B684E4A934213D07B684D4ABA
:100FCC0093420DD07B684C4A934207D07B684B4AC6
:100FDC00934201D106230CE007230AE0052308E025
:100FEC00042306E0032304E0022302E0012300E0D3
:100FFC0000237A6902F00302920093403A6913438A
:10100C003B6137497B699B0802333A6941F82320DD
:10101C003B4B1B683B61FB68DB433A6913403B610C
:10102C003B685B6803F48033002B03D03A69FB68A0
:10103C0013433B61324A3B691360314B5B683B6144
:10104C00FB68DB433A6913403B613B685B6803F424
:10105C000033002B03D03A69FB6813433B61284AE9
:10106C003B695360264B9B683B61FB68DB433A69E9
:10107C0013403B613B685B6803F48013002B03D087
:10108C003A69FB6813433B611D4A3B6993601C4BF7
:10109C00DB683B61FB68DB433A6913403B613B68AF
:1010AC005B6803F40013002B03D03A69FB6813430D
:1010BC003B61134A3B69D3607B6901337B613B68BD
:1010CC001A687B6922FA03F3002B7FF497AE00BFFA
:1010DC0000BF1C37BD4680BC704700BF00380240C3
:1010EC0000000140000002400004024000080240E1
:1010FC00000C024000100240001402400018024094
:10110C000004014080B485B000AF78600B467B8052
:10111C007B681A697B881340002B02D00123FB7378
:10112C0001E00023FB73FB7B18461437BD4680BCE3
:10113C007047000080B582B000AF0346FB80084BBF
:10114C005A69FB881340002B06D0054AFB88536173
:10115C00FB881846FFF790F900BF0837BD4680BDE5
:10116C000004014080B588B000AF78607B68002B2C
:10117C0001D101231DE3944B9B6803F00C03BB616D
:10118C00914B9B6803F480337B617B681B6803F095
:10119C000103002B7BD0BB69082B06D0BB690C2B41
:1011AC000FD17B69B3F5803F0BD1874B1B6803F4E0
:1011BC000033002B6AD07B685B68002B66D101235F
:1011CC00F7E27B685B68012B06D17F4B1B687E4A7C
:1011DC0043F4803313602DE07B685B68002B0CD1EB
:1011EC00794B1B68784A23F480331360764B1B6869
:1011FC00754A23F4802313601CE07B685B68052B25
:10120C000CD1714B1B68704A43F4802313606E4BF6
:10121C001B686D4A43F4803313600BE06A4B1B6808
:10122C00694A23F480331360674B1B68664A23F4C6
:10123C00802313607B685B68002B13D0FFF7BAFC2C
:10124C00386108E0FFF7B6FC02463B69D31A642B01
:10125C0001D90323ADE25C4B1B6803F40033002B74
:10126C00F0D014E0FFF7A6FC386108E0FFF7A2FC11
:10127C0002463B69D31A642B01D9032399E2524BE2
:10128C001B6803F40033002BF0D100E000BF7B6837
:10129C001B6803F00203002B5AD0BB69042B05D04A
:1012AC00BB690C2B19D17B69002B16D1464B1B68E3
:1012BC0003F00203002B05D07B68DB68012B01D007
:1012CC00012376E2404B5B6823F4F8527B681B6980
:1012DC001B023D4913434B603AE07B68DB68002BF3
:1012EC0020D03A4B01221A60FFF764FC386108E009
:1012FC00FFF760FC02463B69D31A022B01D903238A
:10130C0057E2314B1B6803F00203002BF0D02E4B3D
:10131C005B6823F4F8527B681B691B022A49134350
:10132C004B6015E0294B00221A60FFF743FC386133
:10133C0008E0FFF73FFC02463B69D31A022B01D9A8
:10134C00032336E2204B1B6803F00203002BF0D181
:10135C007B681B6803F01003002B00F0B880BB699E
:10136C00002B70D1184B1B6803F40073002B05D0B5
:10137C007B689B69002B01D101231AE27B681A6AF6
:10138C00114B5B6803F460439A4221D97B681B6A5A
:10139C00184600F07DFC0346002B01D0012308E227
:1013AC00094B5B6823F460427B681B6A0649134354
:1013BC004B60054B5B6823F07F427B68DB691B0647
:1013CC00014913434B6020E00038024000004742C3
:1013DC00994B5B6823F460427B681B6A9649134304
:1013EC004B60954B5B6823F07F427B68DB691B0687
:1013FC00914913434B607B681B6A184600F048FC0C
:10140C000346002B01D00123D3E17B681B6A5B0BE5
:10141C0001334FF4004202FA03F3874A926812092F
:10142C0002F00F0285498A5CD340854A1360854BD4
:10143C001B681846FFF772FB0346FB73FB7B002B04
:10144C0045D0FB7BB5E17B689B69002B29D07E4B9B
:10145C0001221A60FFF7AEFB386108E0FFF7AAFB28
:10146C0002463B69D31A022B01D90323A1E1724B2B
:10147C001B6803F40073002BF0D06F4B5B6823F4F4
:10148C0060427B681B6A6C4913434B606A4B5B6818
:10149C0023F07F427B68DB691B06674913434B6073
:1014AC0015E0694B00221A60FFF784FB386108E0F5
:1014BC00FFF780FB02463B69D31A022B01D90323A9
:1014CC0077E15D4B1B6803F40073002BF0D17B6854
:1014DC001B6803F00803002B30D07B685B69002B82
:1014EC0016D05A4B01221A60FFF764FB386108E0F2
:1014FC00FFF760FB02463B69D31A022B01D9032389
:10150C0057E14D4B5B6B03F00203002BF0D015E061
:10151C004E4B00221A60FFF74DFB386108E0FFF7D5
:10152C0049FB02463B69D31A022B01D9032340E144
:10153C00414B5B6B03F00203002BF0D17B681B6803
:10154C0003F00403002B00F0B5800023FB773A4B2B
:10155C005B6A03F08053002B0DD1374B5B6A364A24
:10156C0043F080535362344B5B6A03F08053BB608F
:10157C00BB680123FB77364B1B6803F48073002B8D
:10158C0018D1334B1B68324A43F480731360FFF756
:10159C0011FB386108E0FFF70DFB02463B69D31ADB
:1015AC00642B01D9032304E1294B1B6803F48073DA
:1015BC00002BF0D07B689B68012B06D11E4B5B6B1C
:1015CC001D4A43F4807353632DE07B689B68002BAA
:1015DC000CD1194B5B6B184A23F480735363164B75
:1015EC005B6B154A23F4806353631CE07B689B6838
:1015FC00052B0CD1104B5B6B0F4A43F48063536388
:10160C000D4B5B6B0C4A43F4807353630BE00A4B3A
:10161C005B6B094A23F480735363074B5B6B064A7D
:10162C0023F4806353637B689B68002B24D0FFF703
:10163C00C1FA386119E000BF00380240E42D0008FF
:10164C000000002004000020200047428006474292
:10165C0000700040FFF7AEFA02463B69D31A41F224
:10166C008832934201D90323A3E0544B5B6B03F400
:10167C000073002BEED014E0FFF79CFA38610AE0FF
:10168C00FFF798FA02463B69D31A41F2883293422B
:10169C0001D903238DE0494B5B6B03F40073002BE2
:1016AC00EED1FB7F012B05D1444B5B6A434A23F0FF
:1016BC00805353627B685B6A002B79D0BB690C2B1F
:1016CC0056D07B685B6A022B3BD13D4B00221A60E3
:1016DC00FFF770FA386108E0FFF76CFA02463B69D5
:1016EC00D31A022B01D9032363E0344B1B6803F09C
:1016FC000073002BF0D1314B9B6823F47D027B6887
:10170C00996A7B68DB6A19437B681B6B0B432B491B
:10171C0013438B602A4B01221A60FFF74BFA386196
:10172C0008E0FFF747FA02463B69D31A022B01D9AE
:10173C0003233EE0214B1B6803F00073002BF0D019
:10174C0036E01F4B00221A60FFF734FA386108E0CC
:10175C00FFF730FA02463B69D31A022B01D9032357
:10176C0027E0164B1B6803F00073002BF0D11FE031
:10177C007B685B6A012B01D101231AE00F4B9B683C
:10178C007B617B6903F480327B689B6A9A420DD142
:10179C007B6903F470127B68DB6A9A4206D17B6921
:1017AC0003F440027B681B6B9A4201D0012300E0DA
:1017BC00002318462037BD4680BD00BF00380240CC
:1017CC006000474280B584B000AF786039607B68B8
:1017DC00002B01D101231AE18F4B1B6803F001038D
:1017EC003A689A4219D93B68012B05D18A4B1B6880
:1017FC00894A43F004031360874B1B6823F00102F2
:10180C0085493B6813430B60834B1B6803F0010352
:10181C003A689A4201D00123F9E07B681B6803F017
:10182C000203002B08D07D4B9B6823F0F0027B68F1
:10183C009B687A4913438B607B681B6803F0010338
:10184C00002B00F08E807B685B68022B07D1734BFA
:10185C001B6803F40033002B21D10123D7E07B68F4
:10186C005B68032B07D16D4B1B6803F00073002BD7
:10187C0015D10123CBE07B685B68012B07D1674B4B
:10188C001B6803F00203002B09D10123BFE0634B5B
:10189C001B6803F40073002B01D10123B7E05F4BED
:1018AC009B6823F003027B685B685C4913438B6085
:1018BC00FFF780F9F8607B685B68022B12D10AE0B5
:1018CC00FFF778F90246FB68D31A41F2883293424B
:1018DC0001D903239BE0514B9B6803F00C03082BAD
:1018EC00EED13EE07B685B68032B12D10AE0FFF778
:1018FC0061F90246FB68D31A41F28832934201D94E
:10190C00032384E0454B9B6803F00C030C2BEED1B6
:10191C0027E07B685B68012B1DD10AE0FFF74AF9D1
:10192C000246FB68D31A41F28832934201D9032351
:10193C006DE03A4B9B6803F00C03042BEED110E0E6
:10194C00FFF738F90246FB68D31A41F2883293420A
:10195C0001D903235BE0314B9B6803F00C03002B94
:10196C00EED12D4B1B6803F001033A689A4219D251
:10197C003B68012B05D1284B1B68274A43F0040315
:10198C001360254B1B6823F0010223493B6813436A
:10199C000B60214B1B6803F001033A689A4201D09B
:1019AC00012334E07B681B6803F00403002B08D090
:1019BC001A4B9B6823F4E0627B68DB68174913437E
:1019CC008B607B681B6803F00803002B09D0134B5A
:1019DC009B6823F460527B681B69DB000F4913433F
:1019EC008B6000F023F802460C4B9B681B0903F03C
:1019FC000F030B49CB5C22FA03F30A4A13600A4B20
:101A0C001B681846FFF78AF80346FB72FB7A1846E8
:101A1C001037BD4680BD00BF003C0240003802407C
:101A2C00E42D000800000020040000202DE9B04F38
:101A3C0092B000AF794B9B68FB63FB6B03F00C031C
:101A4C000C2B0DD00C2B00F2D580042B02D0082BC4
:101A5C0003D0CFE0724B3B64DAE0724B3B64D7E0CF
:101A6C00FB6B9B0C03F00F026F4B9B5CBB63FB6B24
:101A7C009B0D03F0030301337B63684B9B6803F4FA
:101A8C008033002B5DD0BB6B0022184611460446F8
:101A9C000D4622462B464FF000004FF00001590135
:101AAC0041EAD261500102460B462146511A396176
:101ABC00294663EB01037B614FF000024FF00003FA
:101ACC00D7E904AB59468B01514643EA9163514621
:101ADC008A01D446B2EB0C08594663EB01094FF06E
:101AEC0000024FF000034FEAC90343EA58734FEA70
:101AFC00C80290469946234618EB0303BB602B465D
:101B0C0049EB0303FB604FF000024FF00003D7E9F1
:101B1C00024529464B0220462946044643EAD45343
:101B2C0001464A02104619467B6B0022BB62FA62E0
:101B3C00D7E90A23FEF71CFB02460B4613467B64CF
:101B4C0055E0BB6B00223B627A62D7E908894246BA
:101B5C004B464FF000004FF00001590141EAD261B1
:101B6C00500102460B46C446B2EB0C0A40464946AD
:101B7C008C4663EB0C0B4FF000024FF000034FEA66
:101B8C008B1343EA9A634FEA8A12B2EB0A0463EBB3
:101B9C000B054FF000024FF00003EB0043EA5473C7
:101BAC00E20014461D460346E3183B600B4645EB2A
:101BBC0003037B604FF000024FF00003D7E90045B0
:101BCC0029468B0220462946044643EA9453014693
:101BDC008A02104619467B6B0022BB61FA61D7E979
:101BEC000623FEF7C5FA02460B4613467B647B6C54
:101BFC003B640DE0094B5B685B0B03F007033B6335
:101C0C003B6B01334FF4004202FA03F33B6400BF19
:101C1C003B6C18464837BD46BDE8B08F00380240D3
:101C2C000024F40000127A00D82D000880B400AF14
:101C3C00024B1B681846BD4680BC70470000002054
:101C4C0080B500AFFFF7F2FF0246054B9B681B0AFD
:101C5C0003F007030349CB5C22FA03F3184680BD5B
:101C6C0000380240F42D000880B500AFFFF7DEFF0E
:101C7C000246054B9B68DB0A03F007030349CB5C68
:101C8C0022FA03F3184680BD00380240F42D0008F8
:101C9C0080B487B000AF786000233B61294B9B6810
:101CAC0003F0F003002B2CD1264B5B6A03F080531E
:101CBC00002B05D0244B1B6803F4C0537B6116E04A
:101CCC00204B5B6A1F4A43F0805353621D4B5B6A87
:101CDC0003F08053FB60FB681B4B1B6803F4C05381
:101CEC007B61184B5B6A174A23F0805353627B6904
:101CFC00B3F5C05F05D17B68B3F5404F01D101232B
:101D0C003B613B69012B05D1104B1B680F4A43F01B
:101D1C00040313600D4B1B6823F001020B493B6954
:101D2C0013430B60094B1B6803F001033A699A4299
:101D3C0001D0012300E0002318461C37BD4680BCAF
:101D4C00704700BF0038024000700040003C024069
:101D5C0080B582B000AF78607B68002B01D1012385
:101D6C0031E07B6893F83930DBB2002B06D17B680D
:101D7C00002283F838207868FEF7A0FD7B680222E9
:101D8C0083F839207B681A687B680433194610463F
:101D9C0000F034FC7B68012283F83E207B68012232
:101DAC0083F83A207B68012283F83B207B68012270
:101DBC0083F83C207B68012283F83D207B6801225C
:101DCC0083F83920002318460837BD4680BD000033
:101DDC0080B485B000AF78607B6893F83930DBB2A3
:101DEC00012B01D001233AE07B68022283F83920D1
:101DFC007B681B68DA687B681B6842F00102DA605A
:101E0C007B681B68B3F1804F0ED07B681B68164A49
:101E1C00934209D07B681B68144A934204D07B68B8
:101E2C001B68134A934211D17B681B689B6803F0B3
:101E3C000703FB60FB68062B10D07B681B681A68D5
:101E4C007B681B6842F001021A6007E07B681B6824
:101E5C001A687B681B6842F001021A60002318465E
:101E6C001437BD4680BC7047000400400008004099
:101E7C000008014080B483B000AF78607B681B68B9
:101E8C00DA687B681B6822F00102DA607B681B68E9
:101E9C001A6A41F211131340002B07D17B681B689F
:101EAC001A687B681B6822F001021A607B680122A9
:101EBC0083F83920002318460C37BD4680BC704788
:101ECC0080B582B000AF78607B68002B01D1012314
:101EDC0031E07B6893F83930DBB2002B06D17B689C
:101EEC00002283F83820786800F029F87B680222F9
:101EFC0083F839207B681A687B68043319461046CE
:101F0C0000F07CFB7B68012283F83E207B68012279
:101F1C0083F83A207B68012283F83B207B680122FE
:101F2C0083F83C207B68012283F83D207B680122EA
:101F3C0083F83920002318460837BD4680BD80B48D
:101F4C0083B000AF786000BF0C37BD4680BC7047D3
:101F5C0080B584B000AF786039603B68002B09D144
:101F6C007B6893F83A30DBB2012B14BF01230023BA
:101F7C00DBB222E03B68042B09D17B6893F83B3041
:101F8C00DBB2012B14BF01230023DBB215E03B684D
:101F9C00082B09D17B6893F83C30DBB2012B14BFC2
:101FAC0001230023DBB208E07B6893F83D30DBB201
:101FBC00012B14BF01230023DBB2002B01D0012322
:101FCC0051E03B68002B04D17B68022283F83A2055
:101FDC0013E03B68042B04D17B68022283F83B207E
:101FEC000BE03B68082B04D17B68022283F83C2071
:101FFC0003E07B68022283F83D207B681B6801228A
:10200C003968184600F0F5FC7B681B68B3F1804F0B
:10201C000ED07B681B68164A934209D07B681B68FC
:10202C00144A934204D07B681B68134A934211D123
:10203C007B681B689B6803F00703FB60FB68062B3F
:10204C0010D07B681B681A687B681B6842F0010221
:10205C001A6007E07B681B681A687B681B6842F093
:10206C0001021A60002318461037BD4680BD00BF20
:10207C0000040040000800400008014080B582B018
:10208C0000AF786039607B681B680022396818469D
:10209C0000F0AFFC7B681B681A6A41F21113134005
:1020AC00002B07D17B681B681A687B681B6822F0C1
:1020BC0001021A603B68002B04D17B68012283F873
:1020CC003A2013E03B68042B04D17B68012283F88F
:1020DC003B200BE03B68082B04D17B68012283F882
:1020EC003C2003E07B68012283F83D200023184646
:1020FC000837BD4680BD80B582B000AF78607B6884
:10210C001B681B6903F00203022B22D17B681B683E
:10211C00DB6803F00203022B1BD17B681B686FF09A
:10212C0002021A617B6801221A767B681B689B6924
:10213C0003F00303002B03D0786800F044FA05E0A9
:10214C00786800F037FA786800F046FA7B6800226D
:10215C001A767B681B681B6903F00403042B22D1DD
:10216C007B681B68DB6803F00403042B1BD17B68C2
:10217C001B686FF004021A617B6802221A767B6876
:10218C001B689B6903F44073002B03D0786800F044
:10219C001AFA05E0786800F00DFA786800F01CFA7D
:1021AC007B6800221A767B681B681B6903F00803A6
:1021BC00082B22D17B681B68DB6803F00803082B13
:1021CC001BD17B681B686FF008021A617B680422C4
:1021DC001A767B681B68DB6903F00303002B03D0C2
:1021EC00786800F0F0F905E0786800F0E3F97868B9
:1021FC0000F0F2F97B6800221A767B681B681B6979
:10220C0003F01003102B22D17B681B68DB6803F0F2
:10221C001003102B1BD17B681B686FF010021A6126
:10222C007B6808221A767B681B68DB6903F44073B1
:10223C00002B03D0786800F0C6F905E0786800F050
:10224C00B9F9786800F0C8F97B6800221A767B68C7
:10225C001B681B6903F00103012B0ED17B681B6803
:10226C00DB6803F00103012B07D17B681B686FF05F
:10227C0001021A617868FEF717F97B681B681B6905
:10228C0003F04003402B0ED17B681B68DB6803F026
:10229C004003402B07D17B681B686FF040021A612A
:1022AC00786800F0A2F900BF0837BD4680BD000079
:1022BC0080B584B000AFF860B9607A60FB6893F8C1
:1022CC003830012B01D10223ACE0FB68012283F8EA
:1022DC0038207B680C2B00F29F8001A252F823F06F
:1022EC0021230008252400082524000825240008A3
:1022FC006123000825240008252400082524000853
:10230C00A323000825240008252400082524000800
:10231C00E3230008FB681B68B968184600F0DEF977
:10232C00FB681B689A69FB681B6842F008029A619B
:10233C00FB681B689A69FB681B6822F004029A61AF
:10234C00FB681B689969BB68DA68FB681B680A4301
:10235C009A6162E0FB681B68B968184600F0FAF9EC
:10236C00FB681B689A69FB681B6842F400629A61FF
:10237C00FB681B689A69FB681B6822F480629A618F
:10238C00FB681B689969BB68DB681A02FB681B68F1
:10239C000A439A6141E0FB681B68B968184600F073
:1023AC0017FAFB681B68DA69FB681B6842F00802C5
:1023BC00DA61FB681B68DA69FB681B6822F00402AF
:1023CC00DA61FB681B68D969BB68DA68FB681B6853
:1023DC000A43DA6121E0FB681B68B968184600F013
:1023EC0034FAFB681B68DA69FB681B6842F400620C
:1023FC00DA61FB681B68DA69FB681B6822F480628F
:10240C00DA61FB681B68D969BB68DB681A02FB6878
:10241C001B680A43DA6100E000BFFB68002283F806
:10242C003820002318461037BD4680BD80B584B0D7
:10243C0000AF786039607B6893F83830012B01D19C
:10244C000223B3E07B68012283F838207B680222E8
:10245C0083F839207B681B689B68FB60FB6823F062
:10246C007703FB60FB6823F47F43FB607B681B688E
:10247C00FA689A603B681B68B3F5005F3ED0B3F511
:10248C00005F00F28780B3F5805F00F08580B3F5C4
:10249C00805F7FD8702B1AD0702B7BD8602B50D0DC
:1024AC00602B77D8502B3CD0502B73D8402B58D066
:1024BC00402B6FD8302B64D0302B6BD8202B60D0B6
:1024CC00202B67D8002B5CD0102B5AD062E07B6895
:1024DC0018683B6899683B685A683B68DB6800F091
:1024EC0069FA7B681B689B68FB60FB6843F07703A9
:1024FC00FB607B681B68FA689A604EE07B68186822
:10250C003B6899683B685A683B68DB6800F052FA94
:10251C007B681B689A687B681B6842F480429A60EF
:10252C003BE07B6818683B6859683B68DB681A4677
:10253C0000F0C9F97B681B685021184600F020FA9E
:10254C002BE07B6818683B6859683B68DB681A4667
:10255C0000F0E7F97B681B686021184600F010FA60
:10256C001BE07B6818683B6859683B68DB681A4657
:10257C0000F0A9F97B681B684021184600F000FAAE
:10258C000BE07B681A683B681B681946104600F024
:10259C00F7F902E000BF00E000BF7B68012283F87E
:1025AC0039207B68002283F8382000231846103726
:1025BC00BD4680BD80B483B000AF786000BF0C37DF
:1025CC00BD4680BC704780B483B000AF786000BF5C
:1025DC000C37BD4680BC704780B483B000AF7860C8
:1025EC0000BF0C37BD4680BC704780B483B000AFD1
:1025FC00786000BF0C37BD4680BC704780B485B096
:10260C0000AF786039607B681B68FB607B68B3F156
:10261C00804F0FD07B682B4A93420BD07B682A4AA1
:10262C00934207D07B68294A934203D07B68284A9F
:10263C00934208D1FB6823F07003FB603B685B6836
:10264C00FA681343FB607B68B3F1804F17D07B684B
:10265C001C4A934213D07B681B4A93420FD07B6871
:10266C001A4A93420BD07B68194A934207D07B6875
:10267C00184A934203D07B68174A934208D1FB68EF
:10268C0023F44073FB603B68DB68FA681343FB6020
:10269C00FB6823F080023B681B691343FB607B687B
:1026AC00FA681A603B689A687B68DA623B681A6859
:1026BC007B689A627B6801225A6100BF1437BD4661
:1026CC0080BC70470004004000080040000C004033
:1026DC0000080140000C01400010014080B487B09C
:1026EC0000AF786039607B681B6A23F001027B685D
:1026FC001A627B681B6A7B617B685B683B617B68E9
:10270C009B69FB60FB6823F07003FB60FB6823F0A4
:10271C000303FB603B681B68FA681343FB607B692F
:10272C0023F002037B613B689B687A6913437B61EE
:10273C007B683A695A607B68FA689A613B685A68A8
:10274C007B685A637B687A691A6200BF1C37BD4686
:10275C0080BC704780B487B000AF786039607B680C
:10276C001B6A23F010027B681A627B681B6A7B6110
:10277C007B685B683B617B689B69FB60FB6823F44F
:10278C00E043FB60FB6823F44073FB603B681B6811
:10279C001B02FA681343FB607B6923F020037B6107
:1027AC003B689B681B017A6913437B617B683A69C0
:1027BC005A607B68FA689A613B685A687B689A63CE
:1027CC007B687A691A6200BF1C37BD4680BC7047B3
:1027DC0080B487B000AF786039607B681B6A23F4E3
:1027EC0080727B681A627B681B6A7B617B685B68A2
:1027FC003B617B68DB69FB60FB6823F07003FB606B
:10280C00FB6823F00303FB603B681B68FA68134307
:10281C00FB607B6923F400737B613B689B681B0244
:10282C007A6913437B617B683A695A607B68FA6802
:10283C00DA613B685A687B68DA637B687A691A628A
:10284C0000BF1C37BD4680BC704780B487B000AF5A
:10285C00786039607B681B6A23F480527B681A624B
:10286C007B681B6A7B617B685B683B617B68DB69AF
:10287C00FB60FB6823F4E043FB60FB6823F44073CC
:10288C00FB603B681B681B02FA681343FB607B69A7
:10289C0023F400537B613B689B681B037A691343E9
:1028AC007B617B683A695A607B68FA68DA613B68DD
:1028BC005A687B681A647B687A691A6200BF1C3795
:1028CC00BD4680BC704780B487B000AFF860B9607B
:1028DC007A60FB681B6A7B61FB681B6A23F0010250
:1028EC00FB681A62FB689B693B613B6923F0F00350
:1028FC003B617B681B013A6913433B617B6923F0A5
:10290C000A037B617A69BB6813437B61FB683A6994
:10291C009A61FB687A691A6200BF1C37BD4680BC9D
:10292C00704780B487B000AFF860B9607A60FB681C
:10293C001B6A23F01002FB681A62FB689B697B61BF
:10294C00FB681B6A3B617B6923F470437B617B688A
:10295C001B037A6913437B613B6923F0A0033B6142
:10296C00BB681B013A6913433B61FB687A699A6146
:10297C00FB683A691A6200BF1C37BD4680BC7047C1
:10298C0080B485B000AF786039607B689B68FB6071
:10299C00FB6823F07003FB603A68FB68134343F059
:1029AC000703FB607B68FA689A6000BF1437BD466A
:1029BC0080BC704780B487B000AFF860B9607A60B3
:1029CC003B60FB689B687B617B6923F47F437B6185
:1029DC003B681A027B681A43BB6813437A6913433A
:1029EC007B61FB687A699A6000BF1C37BD4680BC6E
:1029FC00704780B487B000AFF860B9607A60BB688C
:102A0C0003F01F03012202FA03F37B61FB681A6ACD
:102A1C007B69DB431A40FB681A62FB681A6ABB6865
:102A2C0003F01F03796801FA03F31A43FB681A6277
:102A3C0000BF1C37BD4680BC7047000080B485B019
:102A4C0000AF786039607B6893F83830012B01D186
:102A5C00022346E07B68012283F838207B6802223F
:102A6C0083F839207B681B685B68FB607B681B689C
:102A7C009B68BB60FB6823F07003FB603B681B68C2
:102A8C00FA681343FB607B681B68FA685A607B68C2
:102A9C001B68B3F1804F0ED07B681B68134A9342BE
:102AAC0009D07B681B68124A934204D07B681B6870
:102ABC00104A93420CD1BB6823F08003BB603B6887
:102ACC005B68BA681343BB607B681B68BA689A6022
:102ADC007B68012283F839207B68002283F8382038
:102AEC00002318461437BD4680BC704700040040D4
:102AFC00000800400008014080B582B000AF78604B
:102B0C007B68002B01D101233FE07B6893F83D30BB
:102B1C00DBB2002B06D17B68002283F83C2078685E
:102B2C00FDF73AFF7B68242283F83D207B681B6805
:102B3C00DA687B681B6822F40052DA60786800F06F
:102B4C0029F87B681B681A697B681B6822F4904221
:102B5C001A617B681B685A697B681B6822F02A0221
:102B6C005A617B681B68DA687B681B6842F4005208
:102B7C00DA607B6800221A647B68202283F83D208F
:102B8C007B68202283F83E20002318460837BD4678
:102B9C0080BD000080B584B000AF78607B681B6896
:102BAC001B6923F440517B68DA687B681B680A4315
:102BBC001A617B689A687B681B691A437B685B693E
:102BCC001A437B68DB691343BB607B681B68DB685B
:102BDC0023F4164323F00C037A681268B9680B438C
:102BEC00D3607B681B685B6923F440717B689A69CE
:102BFC007B681B680A435A617B681B68554A934281
:102C0C0003D1FFF731F8F86002E0FFF719F8F8602C
:102C1C007B68DB69B3F5004F4CD1FA6813469B0017
:102C2C0013449A001A447B685B685B00B2FBF3F3B5
:102C3C00494AA2FB03235B091901FA6813469B005E
:102C4C0013449A001A447B685B685B00B2FBF3F296
:102C5C00414BA3FB02035B09642000FB03F3D31A73
:102C6C00DB0032333C4AA2FB03235B095B0003F419
:102C7C00F8731944FA6813469B0013449A001A44DB
:102C8C007B685B685B00B2FBF3F2334BA3FB020384
:102C9C005B09642000FB03F3D31ADB0032332E4AAA
:102CAC00A2FB03235B0903F007027B681B680A4441
:102CBC009A604AE0FA6813469B0013449A001A443F
:102CCC007B685B689B00B2FBF3F3234AA2FB0323F4
:102CDC005B091901FA6813469B0013449A001A44C5
:102CEC007B685B689B00B2FBF3F21B4BA3FB0203FC
:102CFC005B09642000FB03F3D31A1B013233164A21
:102D0C00A2FB03235B0903F0F0031944FA68134692
:102D1C009B0013449A001A447B685B689B00B2FBCF
:102D2C00F3F20D4BA3FB02035B09642000FB03F3DE
:102D3C00D31A1B013233084AA2FB03235B0903F0AD
:102D4C000F027B681B680A449A6000BF1037BD46AF
:102D5C0080BD00BF003801401F85EB5170B50026C7
:102D6C000C4D0D4C641BA410A64209D100F022F8A6
:102D7C0000260A4D0A4C641BA410A64205D170BD56
:102D8C0055F8043B98470136EEE755F8043B984755
:102D9C000136F2E7042E0008042E0008042E000869
:102DAC00082E000803460244934200D1704703F8F2
:102DBC00011BF9E7F8B500BFF8BC08BC9E4670478C
:0C2DCC00F8B500BFF8BC08BC9E4670477C
:102DD800030406080C101820300000000000000052
:102DE80000000000010203040607080900000000B3
:042DF80001020304CD
:082DFC00B0D3FF7F01000000CD
:042E04006101000860
:042E08003D01000880
:0C2E0C0068FF1F00100000000100000023
:0400000508000AAD38
:00000001FF
